:020000040800F2
:10000000700F0020D103000859560008B94F0008AE
:10001000555600083D190008AD61000800000000B9
:100020000000000000000000000000003560000833
:10003000151B000800000000755E0008396000080C
:10004000F3030008F3030008F303000800000000B6
:10005000F3030008F3030008F303000800000000A6
:10006000F3030008F303000800000000F303000896
:10007000F3030008F3030008F3030008F303000888
:10008000F3030008F3030008F3030008F303000878
:10009000F3030008F3030008F3030008F303000868
:1000A000F3030008F3030008F3030008211B000812
:1000B0002D1B0008F3030008F3030008F3030008F6
:1000C000F3030008F3030008F3030008F303000838
:1000D00000000000F3030008F3030008F303000826
:1000E000F3030008F3030008F3030008F303000818
:1000F000F3030008F3030008F30300080000000006
:1001000000000000F3030008F3030008F3030008F5
:10011000F3030008F3030008F3030008F3030008E7
:10012000F3030008F3030008F3030008F3030008D7
:10013000F30300080000000000000000F3030008C3
:10014000F3030008000000000000000000000000B1
:100150000000000000000000F303000800000000A1
:100160000000000000000000F3030008F303000893
:10017000000000000000000000000000000000007F
:10018000000000000000000000000000000000006F
:10019000000000000000000000000000000000005F
:1001A0000000000000000000F3030008F303000853
:1001B000F3030008F3030008F3030008F303000847
:1001C000F3030008F3030008000000000000000033
:1001D000000000000000000000000000F303000821
:1001E000F303000800000000000000000000000011
:1001F00000000000000000000000000000000000FF
:1002000000000000F3030008F303000800000000F2
:1002100000000000F30300080000000000000000E0
:10022000000000000000000000000000F3030008D0
:10023000F3030008000000000000000000000000C0
:10024000000000000000000000000000F3030008B0
:10025000F3030008F303000800F002F800F0A8F828
:1002600014A696E8000CB244B344DA4501D100F07C
:100270009FF8BAE80F000FA696E83000A5EB04053A
:1002800004EB0607AAEB0704A7F101074FEA1515CF
:100290004FEA3414A4F10104AC4201D300F088F811
:1002A00013F0010F18BFFB1A43F0010300F001F82F
:1002B000DBE71847706B0000906B0000103A24BF1A
:1002C00078C878C1FAD8520724BF30C830C144BFBB
:1002D00004680C6070470000704700000023002491
:1002E00000250026103A28BF78C1FBD8520728BF46
:1002F00030C148BF0B6070476E2900F0258270291D
:1003000000F06983662906F0E283652906F0DF8341
:10031000672906F0DC83612906F0DB8303681B0A8A
:1003200028BF41F08001692900F0D281642900F0E2
:10033000CF81752900F0CC816F2900F0F7827829F0
:1003400000F03583E92900F09182E42900F08E82E3
:10035000F52900F08B82EF2900F0F482F82900F0F3
:1003600034830368DB0928BF41F08001632901F071
:100370006780732901F06C80E32901F07780F3290D
:1003800001F07C80002070471FB506F093FB01F060
:10039000A5F804000020002106F076FB401C6060F8
:1003A0000020002106F05AFBE0601FBD10B510BD13
:1003B000DFF80CD0FFF7E8FF05F0FAFE01F044F992
:1003C000700F002003B4FFF7F1FF03BC01F086F9C2
:1003D000084880F30A880848804708480047FEE735
:1003E000FEE7FEE7FEE7FEE7FEE7FEE7FEE7FEE7E5
:1003F000FEE7FEE770070020FD60000859020008D4
:1004000053EA020C00F069802DE9F04B4FF0000632
:10041000002B1FBFB3FA83F503FA05F424FA05F69F
:100420005E4012BF1643B2FA82F502FA05F4C5F136
:1004300020051EBF22FA05FC44EA0C04203556EACA
:10044000044C4FEA144418BF641C4FF000084FF0EE
:100450000009904271EB030C39D3002919BFB1FA9E
:1004600081F701FA07F6B0FA80F700FA07F6C7F14C
:1004700020071EBF20FA07FC46EA0C062037B6FB11
:10048000F4FCA7EB0507103F07F01F0BCBF120068C
:100490002CFA06F60CFA0BFB44BFB3460026202FBD
:1004A000A4BF5E464FF0000B5BEA060C08BF4FF09E
:1004B000010B19EB0B0948EB0608ABFB027C06FBB2
:1004C00002CC0BFB03CCC01B71EB0C01C1E70B464C
:1004D000024641464846BDE8F08B13B5084318BFB5
:1004E0004FF0FF300146AFF30080BDE81C4070477D
:1004F0007CB51D4616460C00009007D04142A14233
:1005000002D32044401E01E04FF0FF30064B7B44F5
:100510002A4669460190304600F02FF9002C02D09F
:10052000009A002111707CBD8F020000032A40F266
:10053000308010F0030C00F0158011F8013BBCF185
:10054000020F624498BF11F801CB00F8013B38BF9D
:1005500011F8013BA2F1040298BF00F801CB38BFAB
:1005600000F8013B11F0030300F00483083AC0F0E7
:10057000088051F8043B083A51F804CBA0E8081071
:10058000F5E7121D5CBF51F8043B40F8043BAFF3A4
:100590000080D20724BF11F8013B11F801CB48BFFE
:1005A00011F8012B24BF00F8013B00F801CB48BF34
:1005B00000F8012B70474FF0000200B51346944637
:1005C0009646203922BFA0E80C50A0E80C50B1F1AB
:1005D0002001BFF4F7AF090728BFA0E80C5048BFBF
:1005E0000CC05DF804EB890028BF40F8042B08BF5D
:1005F000704748BF20F8022B11F0804F18BF00F859
:10060000012B704770477047704770B50446856985
:100610000068C10601D5302600E02026C00707D0BB
:1006200070BDD4E9012130469047206A401C206209
:100630006D1EF6D570BD70B5044685690078C0079B
:1006400007D170BDD4E9012120209047206A401CC9
:1006500020626D1EF6D570BD09684A0501D540B20D
:100660007047C905FCD500B2704709684A0501D535
:10067000C0B27047C905FCD580B2704770B50C4652
:100680000546012A05D02878800600D5EA690023AE
:1006900002E0012305E05B1C934202D2E05C0028EB
:1006A000F9D1A869E618C01AA861286A1844286216
:1006B0002846FFF7AAFF04E0D5E9012114F8010B51
:1006C0009047B442F8D32846FFF7B5FF70BD00004D
:1006D0002DE9F0410646002410687529314616A51B
:1006E00010D0FFF7B9FF002802DA404213A507E057
:1006F00031688A0701D512A502E0490704D511A582
:10070000012401E0FFF7B1FF00210A2206F12407CE
:1007100009E0B0FBF2FCB0FBF2F302FB1C0030304E
:1007200078541846491C0028F3D123462A463046FF
:10073000BDE8F04100F095BA000000002D00000077
:100740002B0000002000000011680268006A5305B9
:1007500001D508700AE0D30501D5088006E013062C
:1007600003D5C217C1E9000200E00860012070470C
:1007700001694A1C02610878704700B58FB0CDE965
:1007800001310021059105497944CDE90310114655
:10079000684600F02BF90FB000BD0000E5FFFFFF39
:1007A000D1E900239A4202D2531C0B6010707047AB
:1007B0002DE9FF5F15468A460446DFF8AC80F84411
:1007C0000027D8E900103E46CDE9001010E03AF8C5
:1007D00016106A4602A800F055FE411C07D0217889
:1007E000890603D5E269391891420DD80744761C71
:1007F0002078800602D5E069B84205DDAE42E6DB2E
:100800003AF816000028E2D1A069C01BA06120467A
:10081000FFF7FBFED8E90010CDE90010002017E03B
:100820003AF818106A4602A800F02CFEB0F1FF3F1B
:1008300081460BD000250DF1080B05E0D4E901211C
:100840001BF8050090476D1C4D45F7D308F10100DA
:10085000B0428046E4DB206A384420622046FFF73D
:10086000EAFEBDE8FF9F0000166300002DE9F0419D
:100870008046D21D22F007020025D2E90002F529A8
:1008800015A614D0011E72F1000106DA0023D0EB88
:10089000030063EB020211A608E0D8F800108B07F2
:1008A00001D50FA602E0490701D50EA60125114684
:1008B000002408F1240704E000F08EF930323A55A4
:1008C000641C50EA0102F7D12B46324621464046CD
:1008D000BDE8F04100F0C5B9000000002D000000A7
:1008E0002B0000002000000030B4002100F124049F
:1008F00008E002F00705D208303542EA4372DB080F
:100900006554491C52EA0305F3D10468002310A280
:10091000250708D504F020040C4304D0C469012342
:100920000CA2641EC46130BC00F09BB910B5044633
:1009300021461068FFF799FE02462046BDE81040A8
:100940000023D1E7D21D22F00701D1E90023CBE734
:100950000000000030000000F0B40D4601880905D9
:1009600002D5214C7C4402E01F4C7C440E34002113
:1009700000F1240608E002F00F071209E75D42EAE1
:1009800003721B097754491C52EA0307F3D102781A
:100990000023120704D5702D06D009B102231134AB
:1009A0002246F0BC00F05DB901231034F8E770B5C1
:1009B00004460D4621461068FFF757FE02462946B9
:1009C0002046BDE870400023C6E7D21D22F0070391
:1009D000D3E90023C0E70368126843F020030360F3
:1009E0000823C3610023B7E7786100002DE9F05FB9
:1009F000894604464FF0000ADFF874B1FB44C0F8A2
:100A000020A02046E1688847002874D0252806D019
:100A1000D4E901219047206A401C2062F1E70026BA
:100A20005F462046E16888472028054607DB312DD0
:100A300005D2781910F8200C08B10643F1E7B00789
:100A400001D526F00406C4F81CA00027C4F818A09D
:100A50002A2D09D0284605F0F9FF38B304EB8708A2
:100A6000303DC8F8185019E059F8041B204604EB33
:100A700087029161E1688847012F054618D1E06936
:100A8000002820DA26F020061DE0D8F8180000EB38
:100A9000800005EB40003038C8F818002046E168B7
:100AA0008847054605F0D2FF0028EED1012F0AD075
:100AB0002E2D08D12046E16888477F1C0546022F6D
:100AC00046F02006C4DBA069002803DA404246F065
:100AD0000106A061F00701D026F010066C2D0BD0A6
:100AE000682D09D04C2D39D06A2D35D0742D35D0D4
:100AF0007A2D33D016E038E0E1682F46204688474B
:100B0000B842054609D16C2F26D04FF48060E168C9
:100B1000064320468847054604E06C2F1AD04FF460
:100B2000807006430DB3A5F14100192802D8203585
:100B300046F400664A462946204626604E46FFF7A0
:100B4000DBFB80B101280BD0F61D26F0070000F179
:100B5000080956E74020E4E78020D8E70020D6E7E0
:100B600006F104094DE7284652E7206ABDE8F09FE8
:100B70000861000010B5203AC0F00B80B1E81850B1
:100B8000A0E81850B1E81850A0E81850203ABFF477
:100B9000F5AF5FEA027C24BFB1E81850A0E8185016
:100BA00044BF18C918C0BDE810405FEA827C24BF6A
:100BB00051F8043B40F8043B08BF7047D20728BFF8
:100BC00031F8023B48BF11F8012B28BF20F8023B47
:100BD00048BF00F8012B704730B5B0F10A0271F13F
:100BE00000034FEA900E4EEA817EB0EB0E0061EBFF
:100BF00091014FEA101E4EEA017E10EB0E0041EB10
:100C000011114FEA102E4EEA016E10EB0E0041EB6F
:100C100011214FEA104E4EEA014E10EB0E0041EB4F
:100C20001141401841F100014FEAD00040EA417003
:100C30004FEAD1014FEA810444EA907410EB800539
:100C400044EB01046D1944EB0404521BA3414FF023
:100C5000000348BF0A3200D530BD401C41F10001FD
:100C600030BD2DE9F0470D4699469246044600F105
:100C700024080168880604D5E06921F0100121608C
:100C800000E00120A84201DD471B00E00027A16928
:100C90007A1902EB0900081AA0612078C00602D474
:100CA0002046FFF7B2FC002608E0D4E901211AF83B
:100CB00006009047206A401C761C20624E45F4DBFB
:100CC0002078C0060AD52046FFF79FFC06E0D4E94D
:100CD000012130209047206A401C2062381EA7F175
:100CE0000107F4DC07E0D4E9012118F8050090477A
:100CF000206A401C2062281EA5F10105F3DC204675
:100D0000FFF799FC2078000602D50220BDE8F087A5
:100D10000120FBE72DE9FF4F0C461E464FF0FF3741
:100D20008BB0D2E90001DDF860800A908A46C1F3F9
:100D30000A5505B93D46002108464FF00000BAF1BA
:100D4000000F00F4400005DA00EB80004FF4400192
:100D500001EA50004FEA9059B9F1010F00DDB946A0
:100D60000A9850EA4A000ED044F61050A5F2FF351A
:100D700045432F14B8F1000F1ED07542291E1EDD09
:100D8000C9F100021CE0B8F1010F4FF0000001D0E2
:100D9000302103E0F24305E02154401CB042FBDB6C
:100DA00030460022002121540B99C1F80880C1E986
:100DB00000200FB0BDE8F08FBD1B6D1CDEE74A467A
:100DC00000DA694206A800F0CDFB06AB93E8070005
:100DD00003AB83E8070050460A9905F057FA8DE8FF
:100DE0000700A0F500501F3800900398002D0ADD81
:100DF00042F21F014A460844002303A903906846B3
:100E000005F0C0FC09E0A0F500504A461F38002359
:100E100003A90390684605F0CAFC8DE807000004AA
:100E2000000C03D04FF0FF30410800E01046B8F14D
:100E3000000F03D00022009215461EE0751E05D457
:100E4000FFF7CAFE303262556D1EF9D5B346012256
:100E5000084302D000227F1C04E02078302801D112
:100E600000227F1E002A099784D01DE0112D07DA89
:100E7000FFF7B2FE303262556D1C50EA0102F5D127
:100E8000084302D00098C8B10EE00021681E05E0BA
:100E9000235C625C63542254401E491C8142F7DB90
:100EA000AB46A81B401E0990002004F80B000B98CD
:100EB000099AC0F80880C0E9002B7AE711264FF0A4
:100EC000000857E72DE9F04F88460446D21D22F06E
:100ED000070191B0D1E90001CDE90A0105F09EFDBD
:100EE00002460B98C00F01D02D2007E02068810733
:100EF00001D52B2002E0202101EAC000032A09903D
:100F000001D0072A05DB03464146204600F0EAFAF5
:100F10000BE12078800601D5E06900E00620B8F1F9
:100F2000650F814606D0B8F1660F18D0B8F1670F8B
:100F300070D131E00020B9F1110F009001DB1123D5
:100F400001E009F101030AAA01A90CA8FFF7E2FEDA
:100F5000DDE90C70002609F10105834647E0012018
:100F60004B4600904FF000470AAA01A90CA8FFF7D2
:100F7000D1FEDDE90DB00C995D46002610B909F1EE
:100F800001000D18B9EB050003D4C0F1FF3609F1DB
:100F90000105A5EB09002BE0B9F1010F01DA4FF0D3
:100FA00001090020B9F1110F0090484601DD11231D
:100FB00000E003460AAA01A90CA8FFF7ABFEDDE991
:100FC0000C704D4600268346207800070AD4AB45B6
:100FD00000DA5D4601A8012D04DD411911F8011C5C
:100FE000302907D04F4502DA17F1040F04DA012047
:100FF00082460FE06D1EEEE7002F02DCED1B3E4443
:1010000003E0781CA84200DD7D1CB81B00F1010A3A
:101010004FF000472078000703D4AA4501DB4FF0CA
:10102000FF3A0021B7F1004F0DF143088DF843104E
:1010300024D002202B23002F01DA7F422D230A2106
:10104000021EA0F1010000DC5FB197FBF1FC97FBF1
:10105000F1F201FB1C7C17460CF1300C08F801CDB5
:10106000EEE7A8F1010003702188090501D54521AB
:1010700000E06521A0F1010800F8011C09980FA902
:10108000A1EB0807FF1D00B10120411901EBEA7037
:10109000A1693844081A401EA0612078C00602D415
:1010A0002046FFF7B2FA099828B1D4E90121904708
:1010B000206A401C20622078C00622D52046FFF717
:1010C000A4FA1EE0002E04DBB34502DD01A8805D1A
:1010D00000E03020D4E901219047206A401C2062C2
:1010E000761CAAF101005FEA000A0AD100F0F6F9C5
:1010F000C0680168405CD4E901219047206A401C27
:101100002062281EA5F10105DCDC07E0D4E90121FD
:1011100018F8010B9047206A401C2062381EA7F186
:101120000107F3DC2046FFF786FA032011B041E601
:101130002DE9F04F04460D46D21D22F0070089B07C
:10114000D0E900974846394605F068FC0246F80F9A
:1011500001D02D2307E02068810701D52B2302E071
:10116000202101EAC0038DF820300BB1012000E0FE
:101170000020032A824601D0072A04DB29462046A4
:1011800000F0B0F93FE12078800601D40D2500E0A1
:10119000E569C7F30A560D2D49DA00214FEA175BBE
:1011A00008464FF00000002F00F4400007DA00EB83
:1011B00080004FF4400100EBD07001EA600081151F
:1011C000012901DD4FF0FF3100224FEA850CBCF10F
:1011D000180F06D31346ACF118004FF08052C240EE
:1011E00003E04FF4801323FA0CF30CF10C0CBCF168
:1011F000200F04D3ACF1200C09FA0CF001E007FA3F
:101200000CF000294FF0004801DD18B90FE00ED1B5
:1012100040450CD319EB02095F4121B9404502D189
:101220009F4329EA0209BBEB175F00D0761C208898
:10123000000502D57B48784402E07A4878441938A2
:1012400008AA302302F80A30037C0AF10101002EBB
:101250000AF1020A53546A4602DC4FF0300101E001
:101260004FF031014FF001088DF8001002D0A6F2C6
:10127000FF3603E059EA470100D06B4E002D02DC37
:101280002178090704D54FF002082E218DF80110AE
:10129000C44600210BE0C7F303433F01C35C491C74
:1012A0006D1E02F80830052908F1010801DA002D49
:1012B000F1DC00210CE000EB1973491C1B786D1E5A
:1012C000082902F808304FEA091908F1010801DA83
:1012D000002DF0DC21688B0602D516E0A8F101088C
:1012E000E04505DD02EB080313F8013C302BF5D097
:1012F000B8F1000F09DD02EB080313F8013C2E2BB7
:1013000003D1090701D4A8F10108002D05DD3E2114
:1013100002F808106D1E08F10108407C002E02F84A
:10132000080008F1010804DA2D20764202F80800CE
:1013300002E02B2002F808000A214FF47A7086425E
:1013400008F101080BDB96FBF0F3303302F80830AC
:1013500096FBF0F308F1010800FB136601E0642E30
:101360000CDB642096FBF0F3303302F8083096FB78
:10137000F0F308F1010800FB136601E00A2E06DB1A
:1013800096FBF1F0303002F8080008F1010896FBF6
:10139000F1F001FB1060303002F80800A16908F19B
:1013A000010808EB050202EB0A00081AA061207888
:1013B000C00602D42046FFF728F9216A08AE01EBE7
:1013C0000A00206204E0D4E9012116F8010B9047DD
:1013D000BAF1010AF7D22078C00602D52046FFF7FD
:1013E00014F96E4609E016F8010B3E280FD0D4E937
:1013F00001219047206A401C2062B8F10108F2D216
:101400002046FFF718F909B00320BDE8F08F206AE5
:101410002844206203E0D4E90121302090476D1E6A
:10142000EBD3F8E7F258000002FCFFFF10B5436968
:1014300013B1AFF3008001E0FFF720F9012010BDE8
:10144000127800F124010A7000224A700122EDE7AF
:1014500011684FF0FF32E9E710B5436913B1AFF3FC
:10146000008001E0FFF7A4F9012010BD128800F10F
:10147000240182840022C2840122EDE711684FF02A
:10148000FF32E9E72DE9F04116460C46054600F02B
:101490001DF8036893F80101012807D0FF2C12D82A
:1014A000185D80B101202C70BDE8F081D3F80701F0
:1014B0003246214603F20713C7182846BC46BDE84A
:1014C000F041002360474FF0FF30EDE710B500F02A
:1014D00005F8001D10BD00BFB15500000048704761
:1014E000300000202DE9F0411F4604460326016824
:1014F000072A01F4006004DB08B116A505E016A573
:1015000003E008B115A500E015A521F0100020604A
:10151000A069C01EA0610FB1401EA0612046FFF768
:1015200074F84FB1D4E9012138469047206A401C35
:101530002062C01C206206E0206AFAE7D4E901219B
:1015400015F8010B9047761EF8D22046FFF773F886
:10155000BDE8F0814E414E006E616E00494E46007E
:10156000696E66002DE9F047814616468AB0354817
:1015700078440DC88DE80D0032487844801C03ACD7
:101580000DC884E80D0041F69B300844372190FBDC
:10159000F1F290FBF1F5A5F1800501FB12041B3C73
:1015A00002D56442012000E00020DFF898A08046C8
:1015B0000027FA44AAF1BE0A0EE0E0070AD032463C
:1015C000684607EB470101230AEB810105F0EFF8BC
:1015D0008DE8070064107F1C002CEED1194F7F446A
:1015E000AE3F19E0E80715D007EB04100DF1180A1B
:1015F00090E80E008AE80E00C068F04201D1981908
:1016000008903246012306A903A805F0D0F803ABE1
:1016100083E807006D10641C002DE3D14FF0010337
:1016200032466946B8F1000F03A802D005F0AAF8C7
:1016300001E005F0BCF8C9E90001C9F808200AB0CA
:10164000BDE8F0874856000010B50446AFF30080AF
:101650002046BDE81040FEF7B5BE000000000000C7
:1016600030B44FF0013C50F8042B51F8043BCCFA55
:1016700052F4D51A20D1FCB950F8042B51F8043B90
:10168000CCFA52F4D51A17D1B4B950F8042B51F84A
:10169000043BCCFA52F4D51A0ED16CB950F8042B95
:1016A00051F8043BCCFA52F4D51A05D1002CDAD00B
:1016B00030BC4FF00000704729BAB1FA81F111F047
:1016C0001801D1F120008440F2D1CA40CB4012F081
:1016D000FF0213F0FF0330BCD01A704701491820F5
:1016E000ABBEFEE7260002007047000070B584B074
:1016F00040F2AC4040F20C06C2F200000021C2F2FF
:1017000000060170308847F2FF71084000243080E5
:1017100040F40070C4F20224ADF806002046022115
:10172000002201F02FFB40F29065C2F200050DF19E
:10173000060128460122642303F09CF8204602217A
:10174000012201F01FFB46F6F110ADF8080020461B
:101750000221002201F016FB02A92846012264237F
:1017600003F088F820460221012201F00BFB4FF420
:101770008040ADF80A0020460221002201F002FB61
:101780000DF10A0128460122642303F073F8204674
:101790000221012201F0F6FA4FF44040ADF80C00AE
:1017A00020460221002201F0EDFA03A92846012279
:1017B000642303F05FF820460221012201F0E2FADF
:1017C000308847F63F610840ADF80E002046022100
:1017D000002201F0D7FA0DF10E0128460122642300
:1017E00003F048F820460221012201F0CBFA012043
:1017F00001F0F0F904B070BD2DE9F04383B00207A9
:101800000109104647F640020024C0F27D12002371
:10181000C4F20224FEF7F4FD40F2AC48C2F2000824
:1018200098F80070C0F38D3640F20C096FF39F30CA
:10183000C2F2000997B300F58040ADF806002046DB
:101840000221002201F09EFA40F29065C2F20005EA
:101850000DF1060128460122642303F00BF820460F
:101860000221012201F08EFA06F58040ADF8080051
:1018700020460221002201F085FA02A92846012211
:10188000642302F0F7FF20460221012201F07AFAD8
:10189000B9F8000047F2FF71084030E000F5004061
:1018A000ADF8020020460221002201F06BFA40F25E
:1018B0009065C2F200050DF1020128460122642361
:1018C00002F0D8FF20460221012201F05BFA06F562
:1018D0000040ADF8040020460221002201F052FA37
:1018E00001A928460122642302F0C4FF20460221F8
:1018F000012201F047FAB9F8000040F4006087F0D7
:101900000101A9F8000088F80010ADF80A0020468F
:101910000221002201F036FA40F29060C2F200008B
:101920000DF10A010122642302F0A4FF20460221E6
:10193000012201F027FA03B0BDE8F083FEE70000C2
:101940002DE9F043D2F800C0D0F808E0002953D0C8
:10195000BEF1000F4FF0000464D04FF6FC7311EAA3
:1019600003094FF000074FF0000300F0B580056851
:101970004FF6FC732B40BEF1020F4FF0010455D31C
:101980004B4553D04FF6FF7425EA040605274FF662
:10199000FC7800BF46EA030454F82C50FC1E744542
:1019A00005EA08054ED24D454CD046EA050353F8EA
:1019B0002C30BC1E744503EA08031AD24B4518D0DC
:1019C00046EA030454F82C507C1E744505EA0805C9
:1019D00038D24D4536D046EA050353F82C307745CA
:1019E00003EA080307F1040402D24B452746D1D18C
:1019F000043C1F462B466FE0BEF1000F1AD004686E
:101A00004FF6FC75BEF1010304EA050716D04FF648
:101A1000FF75AC43AEF10205032D03F0030813D2AA
:101A200030E000BF0027002356E000BF1F46002320
:101A300052E000BF00230027002456E001240023C9
:101A400053E000BF2F4647E023F003054FF6FC7636
:101A500044EA070353F82C30043D03EA060343EA43
:101A6000040353F82C3003EA060343EA040353F853
:101A70002C3003EA060344EA030757F82C7007EA00
:101A80000607E5D13D46B8F1000F24D044EA05032E
:101A900053F82C604FF6FC73B8F1010F06EA030609
:101AA00004D1744637462B4616E000BF44EA0605CB
:101AB00055F82C50B8F1020F03EA050304D174461F
:101AC0001F46334608E000BF1C4354F82C404FF635
:101AD000FC7504EA0507744639B14FF6FC763140CF
:101AE0008F421CBF0120BDE8F0834088946043EA28
:101AF000004147EA00435160D36053F82C1029B1EC
:101B00004FF6FC7300041940084310610020BDE843
:101B1000F08300007047000072B600BFFEE70000CF
:101B200040F21850C2F2000000F05EBE40F2905049
:101B3000C2F2000000F058BEF0B581B00022009261
:101B400090F85420012A03D10221084601B0F0BDCB
:101B50000123076880F85430BB685B0748D40B68E2
:101B6000012B0AD00225C0F23045AB420BD1CD6823
:101B70000024C4F27F04A54205D1D7F8C85045F02F
:101B80000105C7F8C8504D681F26C5F3012405F0AC
:101B90001F0507EB8404C3F38463226BAE40B2439A
:101BA000AB401A432263BA68BB6802F0040203F038
:101BB0000803D21840F0BD800A6807F11403C2F38D
:101BC0004064D1F808E0042653F82450C2F30454CA
:101BD00006EAD25C0722A240BEF1004F25EA0205C8
:101BE0000CD143F80C501A6842F000430EE000BFDD
:101BF000816D41F020018165012177E10EFA04F247
:101C00002A4343F80C201A6822F000437B61D1E993
:101C10000434FD68042B5FD13A6E3A6E0B68C2F350
:101C2000846293FAA3F6C3F3846C6FF31F53B6FA7E
:101C300086F5002B2C464FF6FF7E08BF6446A24275
:101C4000C0F20F0E0CD13A6E22F000423A660A68DA
:101C500002EA0E03C2F3846C92FAA2F2B2FA82F59F
:101C60007A6E7A6E002BC2F384622C4608BF6446FB
:101C7000A2420CD17A6E22F000427A660A6802EA29
:101C80000E03C2F3846C92FAA2F2B2FA82F5BA6E33
:101C9000BA6E002BC2F384622C4608BF6446A2428F
:101CA0000CD1BA6E22F00042BA660A6802EA0E034C
:101CB000C2F3846C92FAA2F2B2FA82F5FA6EFA6E6C
:101CC000002B08BF6546C2F38462AA4231D1FA6E86
:101CD00022F00042FA662CE0062202EA950207F1A1
:101CE0006005D1F800C055F8236004FA02F24FF203
:101CF0000004C0F2FF3426400CF0F8442243324383
:101D000042F0004245F823200A698B6955F82260A9
:101D100026F08076334345F822300A690B7F55F868
:101D20002260012B26F0007608BF06F1007645F808
:101D30002260BA680C68D20752D1CA68D7F8B0607E
:101D400023466FF31F5326EA030C4FF6FF7602F08B
:101D50001805C0F20F06EE4000252640C4F27F05AC
:101D600046EA0C06AA42C7F8B06039D193B194FA9A
:101D7000A4F2B2FA82F2013202F01E03092B02F041
:101D80001F0310D8012203EB43069A4042EA065390
:101D900016E000BF012202EB946202F01E030A2B40
:101DA00002F01F03EED303EB43020025CFF62065BC
:101DB000012605EB025206FA03F31A4342F00073C0
:101DC000C3F34062C3F3045307EB82028E68556984
:101DD00007249C40A54306FA03F32B4353610C6888
:101DE0000021C8F208010C4200F07F8048F2083C54
:101DF000C4F2022CDCF800100022CCF22132944212
:101E000001F0E07308BF11F4000215D00422C8F6F7
:101E10006002944248D10022B2EB136F44D1ACF57A
:101E200042718F4261D1DCF8001021F0E07119435A
:101E300041F0807157E000BFACF542718F4254D140
:101E4000DCF8001042F6635221F0E071194341F4CE
:101E50000001CCF8001040F20801C2F2000109684C
:101E6000C0F23E528909A1FB02129109022202EB43
:101E7000410100910099C1B3009901390091009985
:101E800099B3009901390091009971B30099013912
:101E90000091009949B300990139009100990029F6
:101EA0004FF00001E8D121E00022CCF252729442BE
:101EB00008BF11F480010BD04021C9F620118C42DB
:101EC00013D1D7F8C81041F00201C7F8C8100CE0D0
:101ED000ACF542718F4208D1DCF8001021F0E071BE
:101EE000194341F48001CCF800100021002280F851
:101EF0005420084601B0F0BDB0B582B000210028E2
:101F0000019155D0816D39B9044600F0EBF82046B7
:101F10000021E16584F854100268916889004FF649
:101F2000C071C5F6FF7102D593680B40936093684A
:101F3000DB002ED4936801F18051194041F08051AB
:101F4000916040F20801C2F20001096842F6635351
:101F50008909C0F23E53A1FB03139909022303EB45
:101F6000410101910199A1B10199013901910199B1
:101F700079B1019901390191019951B10199013961
:101F80000191019929B10199013901910199002922
:101F9000EAD19168C90011D4816D4FF0010E41F072
:101FA00010018165C16D41F00101C16508E000BF0C
:101FB0004FF0010E704602B0B0BD00BF4FF0000EF2
:101FC0009368846D03F0040304F010041B19836DFF
:101FD0006AD123F48173023383659368DB0712D1DE
:101FE00048F208334FF60054C4F20223CFF6FF74D0
:101FF0001C59E40707D1D0F804C01C6824F47C14F1
:1020000044EA0C041C60437E846BD0E902C144EABC
:10201000433390F82040194341EA0C0141EA04435C
:10202000012C06D1416A0024CFF6FE7404EB414135
:102030000B43846A24B1C16A04F4787421430B43CE
:10204000D16844F20704CFF6F07421401943D160FF
:102050001169036B21F0406119431161916809070F
:102060002DD490F83430017E5B0090F83CC043EAF8
:102070008131D36844F20204A3431943D160136948
:10208000BCF1010F18D140F2FD7123EA010CD0E937
:102090001034D0E9121543EA0C03234319432943B2
:1020A00041F001030AE000BF43F010024FF0010EBF
:1020B0008265704602B0B0BD23F00103136101696F
:1020C000136B012923F00F0302BFC16901390B43D0
:1020D0001363826D012161F301028265704602B0D3
:1020E000B0BD000070B5C4B004460026002524A889
:1020F0006C21CDE94266CDE94066C4F202253F96E7
:10210000FEF759FA02A808308021FEF754FA206839
:1021100005F50041884201D044B070BD4FF4001075
:10212000029002A8039601F01FFA002818BFFFF7DB
:10213000F3FC40F68C40C4F202400168002641F4F2
:1021400080610160016801F4806101910199016879
:1021500041F00101016000683FA900F00100019019
:10216000019880203F90032040902846419600F03F
:1021700045FD2120CDE92406CDE926662896359631
:10218000CDE92F66CDE93166339640F270064FF403
:102190000020C2F20006299001204FF4803106F1A0
:1021A00018052A902B91CDE92D0024A8294600F08E
:1021B00049F8002818BFFFF7AFFC304600212A4637
:1021C00000F06CF9002818BFFFF7A6FC40F2700081
:1021D000C2F2000000F05EFA002818BFFFF79CFC76
:1021E00040F29050D021C2F20000C4F2020101601E
:1021F0004FF4000100228123C0E90E12C0E9102231
:10220000836400F0D9F8002818BFFFF785FC40F27E
:102210009055C2F2000540F27001C2F2000128465A
:1022200000F0E0F9002818BFFFF776FC28461021DF
:102230002565EC6500F0BAFA002818BFFFF76CFCC2
:1022400044B070BD00284FF0010218BF002901D131
:1022500010467047B0B5D0E904C2C369D0F818E0A1
:102260001A43C36B1A4342EA0C0242EA0E020A60A6
:1022700003789B0616D5D0E909C34FF07C75D0F8DA
:102280002CE0846B05EB03534FF47C7505EB0C15C8
:1022900003F07C7344EA0E0405F47C7523432B435E
:1022A0001A430A604268036B40F2FF252A401A4332
:1022B0004A60C368B3F5007F05D0B3F5806F04D1E1
:1022C0000578AD0601D51A434A60436B1A434A604C
:1022D000436C43B1856C046C05F03F0544EA054549
:1022E0002A431A434A60B0F8683040F2000C8B6011
:1022F0000278C0F2FF7C920722D5C56C4FF0805463
:102300000CEB054505EA0C052B438B60056D04EAD3
:10231000D5054FF000542B448B60456D04EA9505BC
:102320004FF080442B448B60856D04EA55052B44A7
:102330008B60C56DB5F1FF3FDCBF03F100438B60DF
:10234000036ECB60436E0B6103789B0702D41423AA
:1023500023E000BF036D0CF1C052002B48BF5B426D
:102360006FF35F334B61456D2C04002D48BF05FBB7
:1023700002F422401A434A61836D0CF17844002B29
:1023800048BF5B429AB28A61C36D1D04002B48BFEF
:1023900003FB04F52A431C238A610022CA5000680B
:1023A00083074FF4E06358BF4FF4A06318430862FB
:1023B000BDE8B04010467047B0B5044600F0E8FCF8
:1023C000002C04BF0120B0BD00210546206884F820
:1023D0004C10022184F85410416941F0060141611A
:1023E00020684169C9070BD000F0D2FC401B0528CA
:1023F000F6D9012003221021A16584F85420B0BD34
:102400004FF6B072D4E90E13CBF6FD7202446FF0B2
:102410001F0505EBF2151943082D03D34FEAF212FD
:10242000072A01D8226C1143426922F44302114366
:10243000416100210164626C426441F24F32C4F296
:10244000020290428164C16401650DDC40F25031AA
:10245000C4F20201884213D040F2D031C4F202012A
:1024600088420DD00FE000BF41F2D031C4F202012A
:10247000884205D041F25031C4F20201884202D1B3
:102480000021416581650021C167A06C01222065A2
:102490000020A16584F85420B0BD000000284FF052
:1024A000010318BF002A01D1184670474369012B68
:1024B00004D1042101230161184670472DE9F04140
:1024C00086B0036842EA010693B19FB24FF6E07509
:1024D000AF429CBF26EA0307B7F5803F40D293F88E
:1024E000206091B191F82070BE420ED011E000BF83
:1024F00091B18FB24FF6E075AF429CBF86EA0107FB
:10250000B7F5803F2CD291F8206092F82070BE423F
:1025100007D0042125E000BF97B24FF6E176B7421D
:102520001ED20227077300270761176A00247E085E
:10253000CFF6010466F3596407F0020766F39A6464
:1025400007F10505A3B1E9B1904601AA0195064638
:102550000F46FFF7F5F9E8B10620306102E000BF51
:1025600005210161012306B0BDE8F041184670471E
:10257000E1B14FF6FC731A402243016041F8252077
:10258000022124E04FF6FC711940214342F8251046
:1025900002601AE00399B268304691420AD141685C
:1025A00061B14FF6FC721140214305E00260012148
:1025B0000DE000BF57F8251048F825104FF6FC71C4
:1025C00001EA0801214347F8251081680131816043
:1025D000002301210361017306B0BDE8F0411846F4
:1025E0007047000000284FF0010218BF002901D1F8
:1025F00010467047D0F850C0BCF1000FF8D090F8EA
:10260000543090F85420022A18BF052B06D14021DF
:102610008165002180F84C10012070470A7B022A56
:1026200004D101220A611046704700BF036841F2DD
:102630004F32C4F20202934208DC40F25032C4F23C
:10264000020293420ED040F2D03207E041F2503203
:10265000C4F20202934205D041F2D032C4F2020227
:1026600093420DD14B68BCF1810F03D123B1416777
:1026700000207047002BFAD0042008610120704729
:102680000A6892F820209207ECD503200861012007
:1026900070470000002804BF01207047016839B16D
:1026A00042684AB18A4204BF0020704707E000BF79
:1026B00002210161012070474269012A04D10421ED
:1026C00001610120704700BFF0B5022202730022B1
:1026D00002610A6A40F2000E5308CFF6010E63F35E
:1026E000596E02F00202856863F39A6E531D4FF62D
:1026F000FC72002D01EA020C47D0012D02D1654683
:1027000043E000BF4FF6FF726E1EAC1E21EA0202CC
:10271000032C06F0030401D265461EE026F00306F2
:102720004FF6FC77654600BF154355F82350043E2D
:1027300005EA070545EA020555F8235005EA0705AD
:1027400045EA020555F8235005EA070545EA020562
:1027500055F8235005EA0705E6D1B4B1154355F8FD
:1027600023504FF6FC76012C05EA06050DD01543E3
:1027700055F82350022C05EA060506D02A4352F8E4
:1027800023204FF6FC7402EA04054FF6FF7221EA9B
:1027900002022A434EEA0C074160002142F82370EE
:1027A0000161012101730020F0BD000002460028F4
:1027B0004FF0010008BF7047CB0612D5136840F6F2
:1027C000FF7223EA020203F57B63C3F3C41301F033
:1027D000110198401129516814BF21EA00000843F3
:1027E000506000207047000010B504680C2321469B
:1027F00004F57B6263F30B01C2F3C4120968D14094
:10280000C9074BD02169490544BF61695FEA41515D
:1028100046D42169090544BF61695FEA015147D483
:102820002169C90444BF61695FEAC14148D4216993
:10283000490444BF61695FEA414149D4216989057E
:1028400044BF61695FEA81514AD42169890444BF68
:1028500061695FEA81414FD42169C90544BF61695B
:102860005FEAC15164D4816DC1B101684A6942F027
:1028700002024A61012180F8541090F8502012069B
:1028800044BF426F1173816E0022002980F84C20F2
:1028900008BF10BDBDE81040084700BF10BD00BF15
:1028A0004FF48061E160816D41F001018165B0E725
:1028B0004FF40061E160816D41F002018165AFE795
:1028C0004FF48051E160816D41F004018165AEE714
:1028D0004FF48041E160816D41F008018165ADE711
:1028E0004FF40071E160426E002AAED0044690477A
:1028F00020462468A9E700BF4FF40051E16090F83A
:10290000541004291ED16169012221F40051616132
:10291000616941F00201616180F8542090F8501023
:10292000090603D5416F0A730021A164C16EABE7AC
:1029300090F85010090611D4A16CD9B900F15402D5
:1029400016E000BF052180F85410026F002A3FF402
:1029500083AF04469047204624687DE7E16F49B97C
:10296000A16C39B9012180F85410416F01F10C02BA
:10297000012111704FF44071E160016E00220029C5
:1029800080F84C203FF46FAF0446884720466AE742
:10299000B0B5044600F0FCF9002C04BF0120B0BD26
:1029A000002184F84C100546206894F8542022B980
:1029B000C4E91811C4E91A112167022184F85410DE
:1029C000416941F00601416120684169C9070BD0A6
:1029D00000F0DEF9401B0528F6D901200322102162
:1029E000A16584F85420B0BD216A426922F44302F3
:1029F00011434161D4E90431E269A56911434FF6FD
:102A0000B072CBF6FD72194302446FF01F0303EB63
:102A1000F2132943082B03D34FEAF212072A13D8E3
:102A200004F1240C9CE80C104FF07C7505EB03536B
:102A30004FF47C7505EB021203F07C7302F47C7298
:102A400043EA0C031A4311430164D4E902122379C7
:102A50001943236BB2F5007F41EA03011ED0B2F5A2
:102A6000806F75D140F2CF32C4F20202904219DD7C
:102A700041F2CF12C4F20202904229DC41F2CF02AD
:102A8000C4F2020290424BDC40F2D032C4F20202A5
:102A900090425BD041F2500254E000BF41F400711B
:102AA00056E000BF40F2CF12C4F2020290421FDD96
:102AB00040F2CF22C4F20202904227DC40F2D01250
:102AC000C4F20202904241D040F250223AE000BFEC
:102AD00041F2CF22C4F2020290422BDC41F2D0122A
:102AE000C4F20202904231D041F250222AE000BFEB
:102AF0005022C4F20202904228D0D022C4F2020234
:102B0000904223D040F250121CE000BF40F2D0228D
:102B1000C4F20202904219D040F2503212E000BFDB
:102B200041F2D002C4F2020290420FD041F25012A0
:102B300008E000BF41F25032C4F20202904205D0D8
:102B400041F2D022C4F20202904239D141F48061B4
:102B5000626B436C42F20015C3F6C0452B4019432B
:102B600041F24F331143C4F2020341640021984201
:102B700081640DDC40F25031C4F20201884213D06E
:102B800040F2D031C4F2020188420DD00FE000BF04
:102B900041F2D031C4F20201884205D041F25031F5
:102BA000C4F20201884202D1002141658165002101
:102BB000C167226501220020A16584F85420B0BDC0
:102BC00041F2D032C4F20202904208BF41F4806167
:102BD000BEE70000B0B5044600F0DAF8054640F262
:102BE0000000C2F200000078611C18BF044400BF5E
:102BF00000F0CEF8401BA042FAD3B0BD0A68002A0C
:102C000008BF70472DE9F04F83B000F12003019316
:102C100047F67F73C0F22F0303EA90234FF0000AB8
:102C20004FF0010B00274FF0000C002500930BE044
:102C30000A68013532FA05F30CF1040C07F10207BA
:102C40000AF1080A00F09A800BFA05F912EA090263
:102C5000EED0D1F80480029248F01006122E1BD15B
:102C60006FF0030202EA5506DDF804B00CF01C0216
:102C70005BF80640D1F810800F2303FA02FE08F03B
:102C80000F0324EA0E0403FA02F222434BF8062053
:102C9000D1F804804FF0010B02680323BB4008F019
:102CA000030EDC439A430EFA07F31A43B8F1120FEE
:102CB00002605BD80BFA08F212F0061F56D0836848
:102CC000D1E902262340BE403343836043684FEA84
:102CD000181623EA0903AE4033434360C368BA4081
:102CE00023401A43C260029C5FEAC802A0D542F2A8
:102CF000000E25F00302C4F2024E7244D2F8608046
:102D00000AF018060F23B34028EA0308009B03FAD1
:102D100006F648EA06031366DEF800804B6848EAC8
:102D20000406DA0258BF28EA0406CEF80060DEF88E
:102D300004809A0248EA040658BF28EA0406CEF83E
:102D40000460DEF884809A0348EA040658BF28EA43
:102D50000406CEF88460DEF88020DB0342EA040635
:102D600058BF22EA0406CEF8806061E78A68BEF1A7
:102D7000030F08BF012AB1D1B5E700BF03B0BDE81A
:102D8000F04F70471823002A08BF2823C15070470E
:102D900040F26C70C2F200000068704790F8412069
:102DA000202A03D190F84020012A01D10220704747
:102DB000242280F841200268136823F00103136085
:102DC000136823F48053136013681943116011686A
:102DD00041F001011160202180F84110002180F8AC
:102DE000401000207047000090F84120202A03D1B5
:102DF00090F84020012A01D102207047242280F857
:102E000041200268136823F001031360136823F460
:102E1000706343EA01211160116841F00101116002
:102E2000202180F84110002180F8401000207047D8
:102E3000002804BF0120704710B590F8411031B947
:102E4000002180F84010044600F022F92046242199
:102E500080F8411090E81210C3680A68012B22F034
:102E600001020A6024F070620A618A6822F400425A
:102E70008A6003D14CF400428A6009E04CF40442B9
:102E8000022B8A6004D14A6842F4006203E000BF6A
:102E90004A6822F400624A604A6800F1100442F075
:102EA000007242F400424A60CA6822F40042CA60DA
:102EB0001CCC1A4342EA0422C369CA60026A1A435C
:102EC0000A600A6842F001020A600021202241647F
:102ED00080F84120016380F84210002010BD0000FE
:102EE0002DE9F04F81B0044690F84100202803D12D
:102EF00094F84000012803D1022001B0BDE8F08F12
:102F000001200D461746984684F84000FFF740FF21
:102F1000216806468A69120427D4212084F84100DA
:102F2000102084F84200002060646762A4F82A80C0
:102F30006063608D49F6000C40F20008B0F5807FB8
:102F4000CFF6004CC0F2FF1828D34B682A466FF327
:102F50009F2203EA0C031A43424402F500524A60DE
:102F6000FF222AE088690004D7D52046192132467D
:102F700002F024F8002871D1FFF70AFF801B2168B6
:102F80001A28EFD388690004ECD5606C40F020006B
:102F90006064202084F84100012070E0628D2B469F
:102FA0006FF39F23D7B2486843EA074300EA0C0057
:102FB000184308F59033184348602285608D0A9FB6
:102FC000002845D06FF39F2505F100794FF0FF0AE7
:102FD0000CF5806B0DE000BF608D21682085C0B2CC
:102FE0004A6849EA004002EA0B0210434860608DDB
:102FF00070B320463946324602F04AF970BB606A27
:10300000226810F8011B91626062608D0138608552
:10301000208D01382085618D0029E8D00004E6D19B
:103020002046802100223B46009602F077F8A8B99E
:10303000608DB0F5807FCFD32068A4F828A04168C8
:1030400001EA0B01294341EA08014160CFE700BFD3
:1030500020463946324602F0DDF818B1012001B0B1
:10306000BDE8F08F20682021C16142684EF6000360
:10307000CFF600631A404260002084F8411000211E
:1030800084F8421084F8401001B0BDE8F08F0000D1
:10309000B0B5AAB0044602A80025083080212995C1
:1030A000CDE92755CDE92555FDF785FA206845F688
:1030B0000001C4F20001884202D02AB0B0BD00BFB6
:1030C0004FF48040029002A8039500F04DFA0028CA
:1030D00018BFFEF721FD40F68C44C4F2024420687C
:1030E00025A940F002002060206800F00200019055
:1030F00001984FF410502590122026900020CDE921
:1031000027000420299040F20040C4F20220FFF77B
:1031100075FD206940F480002061206900F4800082
:10312000019001982AB0B0BD40F20041C4F2030101
:103130000A68D2071CBF012070470A6822F0040207
:10314000104308600020704740F20041C4F20301C0
:10315000086840F0010200200A60704740F2000059
:1031600040F26C71C2F20000C2F2000100780A68FD
:10317000104408607047000080B5032000F022F979
:1031800000F074FE40F62041C4F20241096846F6A0
:10319000D43201F00F01C0F60002515CC84040F289
:1031A0000801C2F200010860042001F0C5FC0F20F4
:1031B00000F008F800281CBF012080BD00F0C2F814
:1031C000002080BDB0B540F20005C2F200052978AC
:1031D000E1B304464EF21000CEF200000068400752
:1031E00010D401F0F7FC022824D001281AD078BBB3
:1031F00040F20800C2F20000006829784FF4FA5249
:1032000007E000BF40F20800C2F2000000684FF47F
:103210007A72B2FBF1F1B0FBF1F001F0C9FCA8B990
:103220001BE000BF28784FF47A71B1FBF0F04FF447
:10323000FA4106E028784FF47A71B1FBF0F04FF4D0
:103240000041B1FBF0F001F0B3FC30B10120B0BDA2
:10325000002001F0ADFC0028F8D14FF0FF302146EE
:10326000002200F083F800206C60B0BDBFF35F8FD8
:103270004EF6C0510278CEF200016FF01F03043108
:1032800003EBC20390F801C0042A3CBF4EF6C051C4
:10329000CEF20001086838BFD300FF229A40904365
:1032A0000CFA03F21043086070470000BFF35F8F11
:1032B00041784EF6A053CEF2000390F800C043F8D8
:1032C000081C196821F0010119604168C27B21F0D6
:1032D0001F0141EAC201427B41EA4201827B114364
:1032E00043F8041C8168007B21F01F0141EA400083
:1032F00040EA0C00186070474EF62450BFF35F8F11
:10330000CEF20000016821F480310160016F21F0EC
:1033100001010167BFF34F8FBFF36F8F704700004C
:103320004EF6245140F00100CEF20001BFF35F8F52
:103330000867086840F480300860BFF34F8FBFF320
:103340006F8F704770470000002848BF704700F03B
:103350001F010122C0F34A1002FA01F14EF20012DD
:10336000CEF2000242F820107047000010B54EF671
:103370000C5CCEF2000CDCF80030C3F3022E8EF0B1
:103380000704042C28BF0424BEF103034FF0FF3EC2
:1033900038BF00230EFA04F4A14399400EFA03F358
:1033A0009A43114300F00F0200F160430901043A0F
:1033B00003F564436244002848BF02F10C0319700E
:1033C00010BD00004EF60C51CEF200010A684FF617
:1033D000FF031A4060F30A2242F0806040F0FD7063
:1033E0000860704738B190F83210052903D090F882
:1033F0003210022902D10120704700BF90F832102C
:10340000002904BF002180F83110B0B5044600F057
:1034100075F82068A168026822F40062026099B31E
:10342000402915D0602963D101684FF69362CFF629
:10343000FB7263680A402569E1691A432A430A431B
:1034400042F060020260B1F5802F30D047E000BF4B
:103450004FF693620168CFF6FB72A2F5703201EA73
:10346000020ED4E904C26368D4E9065143EA0E03AC
:103470001A432A4342EA0C020A4342F04002026025
:10348000B1F5802F13D02AE001684FF69362CFF692
:10349000FB726368D4E9035C0A401A43E1692A437A
:1034A00042EA0C020A430260B1F5802F17D161682D
:1034B0002022B1F5807F08BF28224FF0240108BFE9
:1034C0002C21A25861584FF0040308BF082341EA99
:1034D0000221C25841F61F75AA431143C15094F806
:1034E0003200002804BF012084F832000020B0BD63
:1034F000E169B1F5802FDAD0F1E7000080B586B040
:10350000006843F20042C4F200020021904205919B
:10351000CDE903110291019102D006B080BD00BF38
:1035200040F68C40C4F20240026942F4005202614B
:10353000026902F400520092009A026842F001020D
:103540000260006800F00100009000988120019066
:103550000320CDE902010020C4F2022001A9FFF7F7
:103560004DFB06B080BD00002DE9F0470446006821
:1035700040F62848C101C4F2024807D5D8F8C01067
:10358000226B21F040411143C8F8C010C00714D08D
:10359000606BC11E032909D340B1012814D104F185
:1035A000080002F069FC054640B9606BD8F8B0101D
:1035B00021F007010843C8F8B000002520788007F3
:1035C00006D4284621E000BF012520788007F8D5E1
:1035D000A16B6FF0020000EBF1000328284609D32D
:1035E0004FEAF101284629B101292FD104F1080041
:1035F00002F042FC064648B9D8F8B000A16B20F0B2
:1036000038000843C8F8B00000202E46217849074A
:1036100021D5E16B6FF0020202EBB112032A08D34D
:103620004FEAB11129B1012936D104F1080002F0A5
:1036300023FC054680B9D8F8B000E16B20F4E070B7
:103640000843C8F8B000002005E000BF01200126B3
:1036500021784907DDD435466178C90621D5216C2A
:103660006FF0020202EB3162032A08D34FEA3161A4
:1036700029B101293CD104F1080002F0FDFB064606
:1036800080B9D8F8B800216C20F0E0600843C8F891
:10369000B800002005E000BF012001256178C906BF
:1036A000DDD42E466178890627D5616C6FF0010262
:1036B00002EB3142022A08D34FEA314129B10129F4
:1036C00010D104F1080002F0D7FB054660B9D8F824
:1036D000BC00616C20F440300843C8F8BC000020F6
:1036E0000BE000BF012001256178490609D423E0E1
:1036F0000120012661788906D7D4354661784906CC
:103700001AD5A16C6FF0010202EBB142022A08D374
:103710004FEAB14129B101292ED104F1080002F08C
:10372000ABFB064648B9D8F8BC00A16C20F4402099
:103730000843C8F8BC0000202E46A178C90720D055
:10374000E16C002918BFB1F1007F0BD10746C8B961
:10375000D8F8BC00E16C20F040700843C8F8BC0009
:1037600000200EE0B1F1807F2CD104F1080002F0BE
:1037700083FB074630B9EBE701200126A178C90792
:10378000DED137466179C90621D5216D002918BFE0
:10379000B1F1006F0CD10546D0B9D8F8BC00216D4D
:1037A00020F040600843C8F8BC0000200FE000BFD4
:1037B000B1F1806F5AD104F1080002F05DFB0546BB
:1037C00030B9EAE7012001276179C906DDD43D4619
:1037D000D4E9001240F61C47C4F20247120508D58E
:1037E0003A6822F400423A60D4F880203B681A43D9
:1037F0003A6089031AD5616D6FF0020202EB312243
:10380000032A08D34FEA312129B1012932D104F129
:10381000080002F031FB064648B9D8F8B400616DE3
:1038200020F4E0600843C8F8B40000202E46A178D8
:10383000490724D5A16D6FF0020202EB3132032A51
:1038400008D34FEA313129B1012929D104F1080007
:1038500002F012FB054698B9D8F8B400A16D20F427
:10386000E0400843C8F8B400002008E0012001252A
:10387000AEE700BF01200126A1784907DAD435461A
:10388000A178890622D5616E05293BD802290DD081
:10389000024690B1D4E900139B051CD438E000BF68
:1038A00001200125A1788906EDD40FE004F108007C
:1038B00002F0E2FA00280246ECD1D8F8C000616EAE
:1038C00020F007000843C8F8C00000202A46D4E9C9
:1038D00000139B051CD5A36E43F00806082E0BD1E0
:1038E000814660B9D8F8C00020F008001843C8F835
:1038F000C00000200CE000BF01204FF00109890149
:1039000009D464E001200122D4E900139B05E2D42C
:10391000914689015BD54FF60846CFF6FF76824681
:10392000B85940F00100B851FFF732FA054600BF20
:10393000B859C00708D1FFF72BFA401B0228F7D966
:103940000320032144E000BF5046BAF1000F514666
:103950003ED1D8F8C80010F4407019D0A16F01F41E
:103960004071884211D0D8F8C800D8F8C81020F4A7
:10397000407041F48031C8F8C810D8F8C81021F45C
:103980008031C8F8C810C8F8C800C00740F02A81C4
:10399000A06F39684FF6CF7300F4407221F47C5168
:1039A000C0F2FF0303EA1013B2F5407F08BF1943CA
:1039B0003960D8F8C8106FF31F3021F44071C8F88F
:1039C000C810D8F8C8100843C8F8C80000204946F5
:1039D000226853011BD5236E6FF0010707EB3317E5
:1039E000022F0AD34FEA33173FB1012F34D1D8F851
:1039F000007047F40037C8F80070064640B9D8F8A0
:103A0000C00020F030001843C8F8C00000200E4667
:103A1000110125D5E16ECA1E022A09D3012913D04E
:103A2000002949D1D8F8001041F40031C8F800103D
:103A30000546B0B9D8F8B800E16E20F00700084399
:103A4000C8F8B80000200BE004F1080002F014FAF6
:103A5000054630B9EEE700BF012001261101D9D497
:103A60003546E178C9062CD5216F6FF0020202EBD2
:103A7000F102022A0BD34FEAF101012914D00029E7
:103A80004AD1D8F8001041F40031C8F800100646B9
:103A9000C0B9D8F8B800216F20F038000843C8F842
:103AA000B80000200DE000BF04F1080002F0E4F9C6
:103AB000064638B9EDE700BF01200125E178C906C7
:103AC000D2D42E46E17889062BD5616F6FF00202C1
:103AD00002EBB112022A0BD34FEAB111012913D024
:103AE000002951D1D8F8001041F40031C8F8001075
:103AF0000546B8B9D8F8B800616F20F4E070084303
:103B0000C8F8B80000200CE004F1080002F0B4F995
:103B1000054638B9EEE700BF01200126E1788906A5
:103B2000D3D435462179490733D5E16D59B1B1F583
:103B3000007F11D0B1F5807F20D1D8F8001041F47A
:103B40000031C8F80010064668B12179C90624D4AE
:103B50003046BDE8F08700BF04F1080002F08CF9A0
:103B600000280646F1D1D8F8C000E16D20F440707D
:103B70000843C8F8C00000200BE000BF0120012668
:103B80002179C906E4D508E00120012521794907FA
:103B9000CBD42E462179C906DAD5E16F302911D070
:103BA00020290BD010291CBF0120BDE8F087D8F8D0
:103BB000001041F40031C8F8001003E004F10800DF
:103BC00002F05AF9002818BFBDE8F087D8F8BC0009
:103BD000E16F20F030000843C8F8BC003046BDE873
:103BE000F08700BFFFF7D4F8054641F2883600BFE2
:103BF000D8F8C80080073FF5CBAEFFF7C9F8411BE6
:103C00000320B1424FF00301F2D9E1E62DE9F04380
:103C100081B0002800F0D08042F20008C4F202080F
:103C20000446D8F800000D4600F00F0081420DD97F
:103C3000D8F8000020F00F002843C8F80000D8F89A
:103C4000000000F00F00A84240F0B680206840F667
:103C50002047C106C4F202470CD561693A68702357
:103C600003EA1222914205D93A6822F4E04242EA7C
:103C70000121396001070CD521693A68702303EAF4
:103C80001212914205D93A6822F4E06242EA011127
:103C9000396041070AD5E1683A6802F07002914242
:103CA00004D93A6822F070021143396081070AD5BD
:103CB000A1683A6802F00F02914204D93A6822F0F2
:103CC0000F0211433960C00768D1206881070AD507
:103CD000A1683A6802F00F02914204D23A6822F0D9
:103CE0000F0211433960D8F8001001F00F018D4226
:103CF0000CD2D8F8001021F00F012943C8F80010A9
:103D0000D8F8001001F00F01A94255D141070AD59A
:103D1000E1683A6802F07002914204D23A6822F0F7
:103D200070021143396001070CD521693A6870238C
:103D300003EA1212914205D23A6822F4E06242EAA2
:103D400001113960C0060CD560693968702202EA39
:103D50001121884205D2396821F4E04141EA00206E
:103D6000386000F083F8396846F6D43201F00F016C
:103D7000C0F60002525C40F20401C2F20001096880
:103D800040F2080320FA02F2C2F2000308461A6069
:103D900001B0BDE8F043FFF715BA00BF606857F8FF
:103DA000201C01280CD0022804D003285AD18901F4
:103DB00002D507E0890305D4012001B0BDE8F083F6
:103DC0008905F9D557F8041C21F00301084347F889
:103DD000040CFEF7DDFF61680646032941F28839CD
:103DE00039D0022929D0012910D100BF57F8040C7D
:103DF00000F0180008283FF468AFFEF7C9FF801BE9
:103E000048454FF00300F1D90DE000BF57F8040C0E
:103E100010F0180F3FF459AFFEF7BAFF801B48456A
:103E20004FF00300F2D901B0BDE8F083FEF7B0FF18
:103E3000801B48454FF00300F5D857F8040C00F0FC
:103E400018001028F2D140E7FEF7A2FF801B48457A
:103E50004FF00300E7D857F8040C00F018001828BA
:103E6000F2D132E78907A7D5ACE7000080B540F66C
:103E70000041C4F20241C86900F01800082802BFDE
:103E800040F60010C0F23D0080BDC86910F0180F68
:103E900034D0C86900F01800102802BF47F640006F
:103EA000C0F27D1080BDC86900F01800182849F2E2
:103EB0000000C0F2D03066D1D1F828E08A6AC2F39F
:103EC000052C8A6A8B6BBCF1000F04BF002080BDFB
:103ED000DB08D20603EAE2726FF35F3200EE102ACB
:103EE0000EF00302B8EE400A032A15D0012A17D1BA
:103EF0000A68920618D49FED251A1DE0086880060E
:103F000049F20000C0F2D03058BF80BD0968C1F34B
:103F1000C101C84080BD00BF9FED1B1A0CE000BF6F
:103F20009FED1B1A08E000BF0A68C2F3C102D0402F
:103F300001EE100AB8EE411A02EE10CA486BB8EE54
:103F4000422A6FF35F2081EE021A02EE100A9FED03
:103F5000113AB8EE422A20EE030A486B30EE020A0C
:103F6000B7EE002AC0F3462030EE020A013021EEFF
:103F7000000A01EE100AB8EE411A80EE010ABCEE0A
:103F8000C00A10EE100A80BD20BCBE4B0024744C49
:103F90000024744A00000039002804BF0120704743
:103FA0002DE9F04381B040F6004740F6F049044661
:103FB000C4F20247C4F20249F86959F8C81C2278D1
:103FC00000F01808D00601F003062AD5B8F1080F52
:103FD0001CD0B8F1180F08BF022E17D0E16938685D
:103FE000002900F06D8140F480703860FEF7D0FE4B
:103FF000054600BF386880050CD4FEF7C9FE401B9B
:1040000002284FF00300F5D958E200BFE06900280C
:1040100000F0E480B869216A20F47C1040EA014095
:10402000B8612078C00719D0B8F1100F12D0B8F1DC
:10403000180F08BF032E0DD061683868B1F5A02FA6
:1040400060DA002900F0B081B1F5803F00F0CE8148
:104050009EE100BF6068002800F0C08020788007E3
:1040600077D5B8F1000F21D0E068B8F1180F08BF7C
:10407000012E55D03968002800F06681206921F0B2
:10408000180108433860386840F001003860FEF7D6
:104090007FFE05463868800754D4FEF779FE401B42
:1040A00002284FF00300F5D908E200BFE0680028BD
:1040B00000F094803968206901F01801814231D004
:1040C000396821F0180108433860FFF7CFFE396ADC
:1040D00046F6D43201F00F01C0F60002515C40F206
:1040E000080201F01F0120FA01F140F20400C2F2BF
:1040F00000000068C2F200021160FFF763F80028B8
:104100006CD10FE000F06A81B1F5A81F40F040814A
:1041100040F480203860386840F4801064E100BFCB
:1041200000285BD0FEF734FE054600BF38688007E4
:1041300008D4FEF72DFE401B0228F7D9032001B05A
:10414000BDE8F0833869616920F4FE0040EA01406F
:1041500038612078000745D4207840075CD4207867
:10416000800600F17F80A56AA5B3B8F1180F40F072
:10417000C98059F8C81C59F8BC0C012D2ED0E26A30
:1041800001F00303934229D1C1F30521226B91422F
:1041900024D1626B01466FF35F21013A91421DD138
:1041A000A16BC0F3462201398A4217D1E16BC0F3FB
:1041B000064201398A4211D1216CC0F306600139EF
:1041C00088420BD159F8B80CE16CC0F3CC0088429E
:1041D00040F0E881002001B0BDE8F083012001B08B
:1041E000BDE8F083A169D9F80000002952D040F061
:1041F0008060C9F80000FEF7CBFD0546D9F8000045
:104200000001A9D4FEF7C4FD401B0228F6D9032003
:1042100001B0BDE8F08300BF4FF62446CFF6FF762D
:10422000B859C00712D1B85940F00100B851FEF793
:10423000AFFD0546B859C00708D1FEF7A9FD401BE0
:1042400002284FF00300F5D938E100BFA168D9F882
:104250000000042946DC002900F0EA80012900F072
:104260001781D5E0616A3868002900F07F8040F44A
:1042700080503860FEF78CFD054600BF386880042A
:104280003FF571AFFEF784FD401B02284FF003009D
:10429000F4D913E120F08060C9F80000FEF778FD42
:1042A000054600BFD9F8000000017FF555AFFEF7C5
:1042B0006FFD401B02284FF00300F3D9FEE000BF62
:1042C00020F480703860FEF763FD0546386880058D
:1042D0007FF5A7AEFEF75CFD401B02284FF0030000
:1042E000F4D9EBE0052900F0C780852940F09080E3
:1042F00040F00400C9F80000D9F8000040F0800048
:10430000C2E000BF386820F080703860FEF740FDE2
:10431000022D05460CD100BF3868800140F1D280E3
:10432000FEF736FD401B02284FF00300F4D9C5E02C
:104330003868800140F12881FEF72AFD401B0228E1
:104340004FF00300F4D9B9E021F001003860FEF726
:104350001FFD0546386880077FF5FBAEFEF718FDA8
:10436000401B02284FF00300F4D9A7E020F480504E
:104370003860FEF70DFD0546386880047FF5F3AE22
:10438000FEF706FD401B02284FF00300F4D995E02C
:1043900020F480303860386820F480203860386835
:1043A00020F4801024E000BF20F4803038603868AA
:1043B00020F480103860386820F480203860FEF7E0
:1043C000E7FC0546386880037FF548AEFEF7E0FC61
:1043D000401B64284FF00300F4D96FE040F48020C4
:1043E0003860386820F480103860386840F48030D5
:1043F0003860FEF7CDFC0546386880033FF52EAEE9
:10440000FEF7C6FC401B64284FF00300F4D955E0CA
:1044100020F00100C9F80000D9F8000020F00400E5
:10442000C9F80000D9F8000020F0800032E000BF99
:1044300020F00100C9F80000D9F8000020F0800049
:10444000C9F80000D9F8000020F00400C9F8000005
:10445000FEF79EFC054641F2883600BFD9F8000001
:1044600080077FF57CAEFEF793FC401BB0424FF017
:104470000300F3D922E000BF40F00400C9F80000B7
:10448000D9F8000020F08000C9F80000D9F8000039
:1044900040F00100C9F80000FEF77AFC054641F241
:1044A000883600BFD9F8000080073FF558AEFEF708
:1044B0006FFC401BB0424FF00300F3D901B0BDE8E0
:1044C000F08300BF59F8C80C43F6037104F12C03C4
:1044D00088430ECB084340EA0220A16B49F8C80C80
:1044E0004FF47E4202EB4121E26B581E4FF4FE0373
:1044F00089B203EB02426FF35F20084402F4FE012D
:10450000226C4FF0FE4303EB0262084402F0FE41CE
:10451000084449F8BC0C59F8C80C20F0100049F8C0
:10452000C80CE06CC00049F8B80C59F8C80C40F051
:10453000100049F8C80C59F8C80C616C20F00C0048
:10454000084349F8C80C59F8C80CA16C20F02000A9
:10455000084349F8C80C59F8C80C40F4803049F8B1
:10456000C80C386840F080703860FEF711FC0446D3
:10457000386880013FF52EAEFEF70AFC001B0228CA
:104580004FF00300F4D999E759F8C80C4FF6FC71C5
:10459000CFF6F871084049F8C80C002001B0BDE81A
:1045A000F08300BF59F8C80C20F0100049F8C80C7F
:1045B000FEF7EEFB0546FEF7EBFBA842FBD0E06CF6
:1045C000C00049F8B80C59F8C80C40F0100049F880
:1045D000C80C002001B0BDE8F083000080B1026883
:1045E0004DF6AD6C0021C368CDF6AD6C81626245BD
:1045F0004FF0010108D10F2B06D90846704700BFC4
:1046000001210846704700BF2DE9F04381B0C46B1B
:10461000083301EB5414DB0804FB03F3624507D1B4
:10462000082B05D901B0BDE8F0430846704700BF2C
:1046300043F60001C4F200018A4205D043F20001B2
:10464000C4F201018A4225D1102B2BD890F8891091
:1046500031B9002180F88810044600F095F8204612
:10466000022180F88910D0E90019D0F818800C6870
:10467000B8F1806F24F001040C608C6804F4F81C1D
:104680001ED1B9F1000F13D0B9F5800F18D1846B8A
:10469000E4B911E043F60041C4F200018A42D5D1E9
:1046A000102BD3D9012101B0BDE8F0430846704773
:1046B000846BB4F1805F06D10C6844F480540C60C4
:1046C0005FEA492402D44FF0010E0FE0C468072CC2
:1046D0000AD3D1F800E0066D2EF480752E430E60EB
:1046E0004FF0000E07E000BF4FF0000E0C6824F4FE
:1046F00080740C60C468C669876AC36B46EA0C069E
:1047000037433B4323438568D0E904628B60D0E99B
:104710000D34476ABEF1000F43EA070343EA04037E
:10472000D0E9124743EA0603066A42EA030242EA74
:10473000060242EA070242EA0502836D42EA0402E7
:10474000C76D42EA0302036E42EA070242EA03022D
:1047500042EA080242EA0902CA600A6D22F0010236
:104760000A6505D1CA68436D22F000421A43CA6047
:1047700000210122C0F88C1080F8892001B0BDE82A
:10478000F04308467047000070B5AAB0044602A87E
:104790000025083080212995CDE92755CDE92555FB
:1047A000FBF709FF206843F20001C4F201018842CF
:1047B00002D02AB070BD00BF4FF00060029002A886
:1047C0000395FEF7D1FE002818BFFDF7A5F940F6C6
:1047D0008C40C4F202408169002641F4805181611D
:1047E000816901F4805101910199016841F0010151
:1047F0000160006825A900F00100019001981C20CB
:10480000259002202690042029900020C4F2022046
:10481000CDE92766FEF7F2F940F21855502207203D
:10482000C2F20005C4F20202C5E9002001204FF4E3
:1048300080610823C5E90860C5E90A062846C5E97C
:104840000261C5E90436C5E90666C5E90C66FEF7EE
:104850009FF8002818BFFDF75FF928461021C4F81B
:104860008050EC65FDF7A2FF002818BFFDF754F952
:104870002AB070BD2DE9F047D0F800901D461746CC
:1048800004460E46FEF784FA94F8891001290DD1EA
:104890008046002E4FF0010018BF002F02D1BDE866
:1048A000F08700BF94F88800012803D10220BDE8FA
:1048B000F08700BF01210320002284F8881084F8CB
:1048C0008900C4F88C206666A4F86870A4F86A7041
:1048D000E266A4F87020A4F87220A068A267B0F580
:1048E000C02F2068E26705D1016841F400610160D2
:1048F00004E000BFC26861F35242C26041684FF6F3
:10490000FF72914339444160016841F00101016047
:104910006168B1F5800F03D1016841F40071016055
:10492000E168102960D343F60001C4F20001884217
:104930000BD043F20001C4F20101884205D043F6D6
:104940000041C4F20001884250D1B4F86A00002846
:1049500000F0C880681C10D133E000BF616E51F8D0
:10496000042B02626166B4F86A000138A4F86A0098
:10497000B4F86A00002800F0B58020684169890712
:10498000ECD4FEF705FAA0EB0800A842F0D32046CD
:1049900001F0E8FAD4F88C0040F48070C4F88C0080
:1049A000012084F88900002084F888000320BDE8F5
:1049B000F08700BFFEF7ECF9B4F86A00002800F0B9
:1049C0009180206841698907F4D5616E51F8042B04
:1049D00002626166B4F86A000138A4F86A00B4F8AB
:1049E0006A000028EDD17DE0072935D9B4F86A00C6
:1049F000002877D04FF6FE706E1C471C12E000BFF7
:104A0000E26B606E0AB350F8042B0A624FF6FE7137
:104A10006066B4F86A000844A4F86A00B4F86A0052
:104A200000285FD021684869800709D4FEF7B0F9F3
:104A3000002EF3D0A0EB0800A842EFD3A7E700BFF9
:104A4000B4F86A000128DBD8606E30F8021BA9F8C0
:104A500020103946DCE700BFB4F86A00002841D0D6
:104A60004FF6FE706E1CA0F1020A471C0EE000BF5C
:104A7000616E51F8042B026250466166B4F86A1008
:104A80000844A4F86A00B4F86A0058B32068416981
:104A9000890709D4FEF77CF9002EF4D0A0EB0800BA
:104AA000A842F0D373E700BFB4F86A10042902D318
:104AB000E16B4129DCD2B4F86A1001290AD9E26B12
:104AC000616E42B131F8020BA9F820004FF6FE707A
:104AD000D3E700BF616E097880F82010606E411C3A
:104AE0003846CAE7681C13D020684069000713D411
:104AF000FEF74EF9A0EB0800A842F5D3D4F88C00DD
:104B000040F02000C4F88C0006E000BFFEF740F93A
:104B1000206840690007F9D5204601F023FA0120FA
:104B200084F88900002084F88800D4F88C000028DC
:104B300018BF0120BDE8F087042888BF7047DFE870
:104B400000F0031B13352D004EF21000CEF20000D2
:104B5000016821F00401016040F6E440C4F2024023
:104B6000016821F00C0120E04EF21000CEF20000AE
:104B70000168022206E000BF4EF21000CEF20000F3
:104B80000168012221F00401016040F6E440C4F212
:104B90000240016862F3830107E000BF4EF210009B
:104BA000CEF20000016841F004010160704700008E
:104BB000411E0020B0EB116F1CBF012070474EF268
:104BC0001002CEF2000251609060116841F00301C2
:104BD000116070474EF21000CEF2000000684007EE
:104BE00044BF0420704740F6E440C4F2024000682D
:104BF00002A100F00C000858704700BF0000000040
:104C000001000000020000000000000090F83C20BD
:104C1000012A4FF002022AD0B0B580F83D20026888
:104C200042F6004C5368D2F808E0C4F2010C624529
:104C300003D14C6823F4700323434FF68F74CFF6EF
:104C4000FF540D6823402B43B2F1804F536018BFCF
:104C500062450FD189682EF08003194391600121CC
:104C6000002280F83D1080F83C20BDE8B04010469E
:104C7000704700BF40F20043C4F200039A42E9D0FB
:104C8000EDE70000002804BF0120704710B590F840
:104C90003D1031B9002180F83C10044600F05EF868
:104CA0002046022180F83D10016842F6004C0A6857
:104CB000B1F1804FC4F2010C18BF61453ED1846848
:104CC00022F070022243B1F1804F18BF61453DD1FF
:104CD000046922F4407222434368C468D0F818E0A3
:104CE0006145CC628B6202D14369CCF830300B68ED
:104CF00022F0800243F004030B60012342EA0E021B
:104D00004B61BFF34F8F0A6080F8483080F83E3027
:104D100080F83F3080F8403080F8413080F84230F1
:104D200080F8433080F8443080F8453080F84630D1
:104D300080F8473080F83D30002010BD40F200443C
:104D4000C4F20004A142BAD0BDE700BF40F2004463
:104D5000C4F20004A142BBD0BEE700000068B0F17D
:104D6000804F18BF704781B040F69C40C4F20240AB
:104D7000016841F001010160006800F0010000904D
:104D8000009801B07047000090F83C20012A4FF0D5
:104D9000020200F0A18080B580F83D20D0F800C06C
:104DA0008822DCF80830CFF6CE721A40CCF8082002
:104DB0000B68B3F5005F0FDB3F22C0F21002934295
:104DC00018DCB3F1101F5FDB71D02021C0F210019D
:104DD0008B426CD0302165E03F2B1FDD5F2B2BDD3C
:104DE000602B00F08F80702B78D0B3F5805F6AD095
:104DF000E0E000BF5F21C0F210018B424CDD60217A
:104E0000C0F210018B4252D07021C0F210018B42CF
:104E100018BFB3F5001F4AD0CCE000BF1F2B05DC44
:104E2000002B44D0102B42D0C4E000BF202B3ED03A
:104E3000302B3CD0BEE000BF402B00F08580502BD3
:104E400040F0B880D1F804E0C968DCF82030DCF824
:104E5000202022F00102CCF82020DCF8182022F0DB
:104E6000F00242EA011123F00A0242EA0E02CCF8F3
:104E70001810CCF82020DCF808104FF68872CFF616
:104E8000CF72114057311CE0B3F5005F00F07E8017
:104E9000B3F5801F0BD08DE04021C0F210018B4292
:104EA00005D05021C0F210018B4240F08380DCF825
:104EB00008104FF68872CFF6CF721140194341F0B7
:104EC0000701CCF808100022012180F83D100021D4
:104ED00080F83C10BDE8804010467047D1E901E3FE
:104EE000C968DCF8082043EA0E0343EA012122F4F2
:104EF0007F421143CCF80810DCF8081041F077012C
:104F0000DFE700BFD1F804E0C968DCF82030DCF846
:104F1000202022F01002CCF82020DCF8182022F407
:104F2000704242EA013123F0A00242EA0E12CCF8AC
:104F30001810CCF82020DCF808104FF68872CFF655
:104F4000CF7211406731BCE7D1F804E0C968DCF8E2
:104F50002030DCF8202022F00102CCF82020DCF800
:104F6000182022F0F00242EA011123F00A0242EA7C
:104F70000E02CCF81810CCF82020DCF808104FF600
:104F80008872CFF6CF72114047319AE7D1E901E339
:104F9000C968DCF8082043EA0E0343EA012122F441
:104FA0007F421143CCF80810DCF8081041F480412E
:104FB00087E700BF012287E7FEE7000070B50446DF
:104FC000006815468369DA0602D40021002266E0F3
:104FD0000E461021C161816989065CD4711C50D0D4
:104FE0002EBBFDF7D5FE2068426894F84210836915
:104FF0001B040BD512F4804208D1202906D0416849
:1050000041F480414160FDF7C3FE05462068816997
:10501000890605D4FDF7BCFE401B1A28F6D328E00C
:1050200081698906DDD536E08169890633D4FDF7CB
:10503000AFFE411B2068B142F6D9426894F8421095
:1050400083691B040CD512F4804209D1202907D0B2
:10505000416841F480414160FDF79AFE054600BF7A
:10506000206881698906DFD4FDF792FE401B1A286B
:10507000F6D3206801228169242110E08169890624
:1050800009D48169890606D4816989065CBF816972
:105090005FEA8161F2D52021C16101220421836987
:1050A000DE0505D54FF4807241F00101C261012295
:1050B0005E0507D49B050CD4002A04BF002070BDF8
:1050C0000CE000BF41F008014FF480629B05C26113
:1050D00004D541F002014FF40072C2618269920767
:1050E00044BF002282628269D20703D1826942F002
:1050F0000102826142684EF60003CFF600631A4057
:105100004260606C08436064202084F84100002005
:1051100084F8420084F84000012070BD2DE9F04180
:105120000446006880690840401AB0FA80F04009DF
:1051300082423BD1DDF8188015460E461F46581CAA
:1051400020D0002F3ED100BF204600214246FFF76D
:1051500035FF00281CBF0120BDE8F081FDF718FED7
:10516000206881693140891BB1FA81F149098D427A
:1051700041D080693040801BB0FA80F04009854200
:10518000E2D013E020464FF0FF314246FFF716FF12
:1051900000281CBF0120BDE8F081206880693040F4
:1051A000801BB0FA80F040098542EBD00020BDE8BA
:1051B000F08100BF80693040801BB0FA80F0400968
:1051C0008542F3D1204639464246FFF7F7FE0028D4
:1051D0001CBF0120BDE8F081FDF7DAFDA0EB08015E
:1051E0002068B942E6D981693140891BB1FA81F161
:1051F00049098D42DED1606C40F0200060642020BF
:1052000084F84100002084F8420084F84000012026
:10521000BDE8F08170B5044600688069800635D429
:1052200015460E4619B928E0806980062ED420461E
:1052300031462A46FFF7C2FE30BBFDF7A9FD411BF0
:105240002068B142F0D981698906EDD4606C40F0E4
:1052500020006064202084F84100002084F842008F
:1052600084F84000012070BDFDF792FD206881693F
:105270008906EBD58069800608D4204600212A469D
:10528000FFF79CFE0028EFD0012070BD002070BD0C
:1052900070B5044600688069800727D415460E461D
:1052A000481C15D03EBB00BF204600212A46FFF710
:1052B00085FE00281CBF012070BDFDF769FD206838
:1052C0008169890729D580698007EDD50EE000BF87
:1052D00020464FF0FF312A46FFF770FE00281CBF22
:1052E000012070BD206880698007F1D5002070BD65
:1052F00080698007FAD4204631462A46FFF75EFED1
:1053000000281CBF012070BDFDF742FD411B206835
:10531000B142EDD981698907EAD4606C40F0200080
:105320006064202084F84100002084F8420084F862
:105330004000012070BD0000B0B588B040F2B04020
:1053400048F20002C2F200004FF48011C4F20222BF
:10535000C0E90021012100240425C1614FF4AC62A1
:1053600080F8341000F12801CDE90644CDE9044469
:10537000CDE90244CDE90044C0E90244C0E9044556
:10538000048380F820404FF480631CC1846380F85C
:105390003C40FCF7B1FD002818BFFCF7BDFB8020A6
:1053A000C1F6505000900620CDE901047F20CDE9E0
:1053B000030540F2B040C2F2000069460594FCF7D4
:1053C000BBFB002818BFFCF7A7FB08B0B0BD00006E
:1053D00080B582B040F68840C4F2024001680022E5
:1053E00041F0010101600068002100F0010001901E
:1053F00001981B20FDF7BAFF1B20FDF7A5FF1C201D
:1054000000210022FDF7B2FF1C2002B0BDE8804061
:10541000FDF79ABFF0B587B0002540F68C400695A1
:10542000CDE90455CDE90255C4F2024001680024DB
:1054300041F0040101600168C4F2022401F004019A
:10544000019101990168012241F080010160016828
:10545000022601F08001019101990168012741F0C4
:1054600001010160016801F00101019101990168E8
:1054700041F0020101600068022100F00200019089
:1054800001982046FDF77EFC02A92046CDE902677F
:10549000CDE90455FDF7B2FB07B0F0BD80B540F291
:1054A000086045F6000248F2CA73C2F2000000210B
:1054B000C4F200024FF0010CC6F28003C0E90023E1
:1054C000C0E9021CC0E90411C0E906110162FDF740
:1054D000AFFC002818BFFCF71FFB40F20860C2F2C7
:1054E00000000021FDF75AFC002818BFFCF714FB50
:1054F00040F20860C2F200000021FDF775FC0028B0
:1055000008BF80BDBDE88040FCF706BB80B5002029
:10551000FDF70AFE002818BFFCF7FEFAFDF714FE9F
:10552000002808BF80BDBDE88040FCF7F5BA000048
:1055300080B540F25C6043F200424FF0600E4FF0E5
:10554000080CC2F200004023C4F200020021C0E9AE
:105550000021C0E902E3C0F810C0C161FDF742FFBD
:10556000002808BF80BDBDE88040FCF7D5BA000028
:10557000B0B540F2906043F200044FF48002C2F2F2
:105580000000C4F201040021C0E9004200F1080259
:1055900007234FF0007C4FF0806E4FF0405582E8BB
:1055A0000A104FF08042C0E9051EC0E90751C0E96A
:1055B0000911C362C0E90D21C163C0E91211C0E93C
:1055C0001411C0E916110166FFF708F8002808BF9A
:1055D000B0BDBDE8B040FCF79FBA000080B588B010
:1055E00040F2207000214FF08042C2F2000041F6EC
:1055F0004B530791CDE905110291C0E90021C0E9A3
:105600000213016180218161FFF73CFB002818BF74
:10561000FCF782FA4FF48050049040F22070C2F2FE
:10562000000004A9FFF7B0FB002818BFFCF774FACC
:10563000202001900020039040F22070C2F2000070
:1056400001A9FFF7E3FA002818BFFCF765FA08B0D4
:1056500080BD0000FEE70000FEE7000080B540F2DC
:10566000AC00C2F200004FF48061FAF7A4FFBDE87D
:10567000804000F001B800002DE9F041A2B040F2F6
:1056800008644FF40050C2F20004ADF807004FF078
:10569000FF370DF107022046782102230097FDF71E
:1056A0001FFC00250DF10702204678210223ADF8EA
:1056B00007500097FDF714FC4FF40450ADF80700B5
:1056C0000DF107022046782102230097FDF708FC20
:1056D0000DF10702204678210223ADF8075000970C
:1056E000FDF7FEFB4FF4FE40ADF807000DF1070299
:1056F0002046782102230097FDF7F2FB4FF4085073
:10570000ADF807000DF1070220467821022300972B
:10571000FDF7E6FB0DF10702204678210223ADF8E4
:1057200007500097FDF7DCFB4FF4E0600DF1070533
:10573000ADF80700204678212A4602230097FDF79E
:10574000CFFB40F2AC0840206E1CC2F200088DF87E
:105750000700304641468022FAF7E8FE20467821CD
:105760002A4681230097FDF7BBFB08F180013046F4
:105770008022FAF7DBFE204678212A468123009713
:10578000FDF7AEFB08F5807130468022FAF7CEFEB9
:10579000204678212A4681230097FDF7A1FB08F5D2
:1057A000C07130468022FAF7C1FE204678212A4691
:1057B00081230097FDF794FB08F5007130468022A5
:1057C000FAF7B4FE204678212A4681230097FDF798
:1057D00087FB08F5207130468022FAF7A7FE2046A5
:1057E00078212A4681230097FDF77AFB08F540715E
:1057F00030468022FAF79AFE204678212A468123F5
:105800000097FDF76DFB08F5607130468022FAF7CE
:105810008DFE204678212A4681230097FDF760FB04
:1058200022B0BDE8F0810000F0B583B06420FDF740
:10583000D1F940F208644FF42E40C2F20004ADF8F2
:105840000A004FF0FF350DF10A02204678210223AD
:105850000095FDF745FB4FF400560DF10A02204676
:1058600078210223ADF80A600095FDF739FB002787
:105870000DF10A02204678210223ADF80A70009546
:10588000FDF72EFB4FF43040ADF80A000DF10A028F
:105890002046782102230095FDF722FB4FF4484073
:1058A000ADF80A000DF10A02204678210223009586
:1058B000FDF716FB0DF10A02204678210223ADF810
:1058C0000A700095FDF70CFB4FF48050ADF80A000C
:1058D0000DF10A022046782102230095FDF700FB16
:1058E0004FF48040ADF80A000DF10A0220467821FD
:1058F00002230095FDF7F4FA4FF40140ADF80A00D9
:105900000DF10A022046782102230095FDF7E8FAFE
:105910004FF47F40ADF80A000DF10A0220467821CD
:1059200002230095FDF7DCFA4FF42140ADF80A00A0
:105930000DF10A022046782102230095FDF7D0FAE6
:105940004FF42640ADF80A000DF10A0220467821F6
:1059500002230095FDF7C4FA4FF42840ADF80A0081
:105960000DF10A022046782102230095FDF7B8FACE
:105970004FF47C50ADF80A000DF10A022046782160
:1059800002230095FDF7ACFA4FF42440ADF80A006D
:105990000DF10A022046782102230095FDF7A0FAB6
:1059A0004FF45340ADF80A000DF10A022046782169
:1059B00002230095FDF794FA0DF10A0220467821A2
:1059C0000223ADF80A700095FDF78AFA4FF45540AE
:1059D000ADF80A000DF10A02204678210223009555
:1059E000FDF77EFA4FF47040ADF80A000DF10A029F
:1059F0002046782102230095FDF772FA4FF45940B2
:105A0000ADF80A000DF10A02204678210223009524
:105A1000FDF766FA4FF40850ADF80A000DF10A02DE
:105A20002046782102230095FDF75AFA4FF45A4098
:105A3000ADF80A000DF10A022046782102230095F4
:105A4000FDF74EFA4FF49050ADF80A000DF10A023E
:105A50002046782102230095FDF742FA4FF45B407F
:105A6000ADF80A000DF10A022046782102230095C4
:105A7000FDF736FA0DF10A02204678210223ADF82F
:105A80000A600095FDF72CFA4FF40D40ADF80A00BE
:105A90000DF10A022046782102230095FDF720FA35
:105AA0004FF4A050ADF80A000DF10A02204678210B
:105AB00002230095FDF714FA4FF42F40ADF80A00C9
:105AC0000DF10A022046782102230095FDF708FA1D
:105AD00040F2AC00C2F200004FF48061FAF76BFDB7
